:100000000C946A0A0C94920A0C94920A0C94920A28
:100010000C94920A0C94920A0C94920A0C94920AF0
:100020000C94920A0C94920A0C94D1190C94401AD4
:100030000C94920A0C94920A0C94920A0C94920AD0
:100040000C94920A0C94920A0C94920A0C94920AC0
:100050000C94920A0C94920A0C94920A0C94321CFE
:100060000C94920A0C94920A0C94920A0C94920AA0
:100070000C94920A0C94920A0C94920A0C94920A90
:100080000C94971C0C94920A0C94920A0C94920A69
:100090000C94920A0C94920A0C94920A0C94920A70
:1000A0000C94920A0C94920A0C94920A05A84CCDD6
:1000B000B2D44EB93836A9020C50B9918688083CA2
:1000C000A6AAAA2ABE000000803FFFE07B5EC18195
:1000D00068180FA3E3FFF0FFF11D1601B86E1807B3
:1000E00045C47FF0FFF8FE8E03A0605B06D781FF5A
:1000F000F0FFE01A1601C0E31AD631E1FFF0FFFC71
:100100007C5F0181681837ADE07FF0FFE23A2E0195
:100110008761D8068B88FFF0FFF81EB60DA0605CE3
:100120000717F1FFF000C03000000000000001C020
:10013000707084200000000000000000802100C1D9
:10014000F0100400000000000000C03000000000BB
:10015000008040000000003030E0E0380000000087
:10016000000000C030000840100000000000000047
:10017000004210C030000000000000020080F83093
:10018000BFBFFF8BC26DDDD66DDDD66DDDD66DDDFB
:10019000D66DDDD66DDDD66DDDD66DDDD66DDDD6E9
:1001A0006DDDFEAF18EBB66EEBB66EEBB66EEBB672
:1001B0006EEBB66EEBB66EEBB66EEBB66EEBB66E86
:1001C000EBB6FE6F0EBFFFFF5786DE7AEBADB7DEF4
:1001D0007AEBADB7DE7AEBADB7DE7AEBADB7DE7AB0
:1001E000EBADFF2B13BFBFFFD5E9ADB7DE7AEBADAB
:1001F000B7DE7AEBADB7DE7AEBADB7DE7AEBADB753
:10020000DEFA57FCF7F3F7FBF7F3F7FBF7F3F7FB2F
:10021000F7F3F75BBDF5D65B6FBDF5D65B6FBDF54C
:10022000D65B6FBDF5D65B6FBDF5D65BD77F4F0054
:10023000BFBFFF55EBADB7DE7AEBADFFB67AD9EBBA
:10024000E6DFC7DBDA97FEA577FF7D74FF0DFFFDC4
:10025000FC3DBB2FFD5BF7B2FBEFC1DBDA7B5F7AC6
:10026000EBADB7DE7AEB65EFBD6EFEF709BFBFBF42
:10027000EFDFCFDFEFDFCF5FADEBDFCFAFEE65AF0F
:100280009BFFBE7EDFBFCAAEDFF7AFAE97BD6EFE8F
:10029000BE7F35BDEC75F3EFF357EF65AF9B7F5F26
:1002A0003FFFFF0A7AD9EBE6DFF35F512F7BEFBD0B
:1002B000F7DE7BEFBDF7DE7BEFBDFF37C0577AD9A6
:1002C000EBE6BFD75FD9CB5E37FFBDFD957AD997F7
:1002D0005EF6DE7BEFBDF7DE7BEFBDF7DE7BEFBDCD
:1002E000F7DE7BEFBDF7DE7BFF3700BFFF7F5F6F81
:1002F0006B5FFA57FFFB785BFBD27F35BFCFDBDA52
:1003000097FEABFB7DABFF2A7FDFBF2F6F6B5FFAE2
:10031000ABFFFDACFED5FEFDFCFDFEFDFC3EBFBF10
:10032000FF0DD87BEFBDF7DE7BEFBDF7DE7BEFBDCA
:10033000F7DE7BEFBDF7DE7BEFBDF7DE97FE95FEC8
:10034000BD795BFBD25FF9EFD5DBDA977EE5DFBBEA
:1003500037FF1BB0F7DE7BEFBDF7DE7BEFBDF7DECF
:10036000FBD27F457F4F6F6B5FFAAF00BFFFFF2A65
:100370007AD9EBE6DFEF5F552F7BDDFCFDFF2A7BB3
:10038000D9EBE6F7FF55F7B2D7EDFF02003FFF7F4D
:100390002F6F6B5FFAAFE4F77A5BFBD27F65DFF319
:1003A000B6F6A5FF52F7A5FF571EBFBFFF579D5ECC
:1003B000F6BAFDBBEC65AF9BDFFF57D5CB5E377F51
:1003C000FFBF8A5EF6BAF9F703BFBFFF37807DE94A
:1003D000BFF2EF795BFBD27FA5BFD7DBDA97FE2BAD
:1003E000FB7B795BFBD27F253F7F7F75976DEBF2BF
:1003F000AFFCAFC665DBBAFC2BFDAB73D9B62E7F65
:10040000E5BF4AD7EF76D9B62EFF95FDD55CFF82C2
:10041000FE7EFF7EFE7EFF7E7E1FBFBFFF95EA65EC
:100420005F7AD97BEFBDF7DE7BEFBDF7DE7BEFBDFB
:10043000F7DE7BEFBDF7DE7BEFFD4B7BD9EBE6BF55
:10044000B7AFF4B2D7CDFFD5DBCBDE7BEFBDF7DEA8
:100450007BEFBDF7DE7BEF7F09BDEC75F3EF09BFE6
:100460007FBFEFDFCFDFEFDFCFDFEF5FD0F2AFF6A1
:10047000AFCC65DBBAFCDDCB7F95BFD265DBBAFCC8
:1004800057F75772D9B62EFFD5FC955DB6ADCBBFE9
:100490003ABFBF7FD55EF6BAF9F7EFDE7BEFBDF767
:1004A000DE7BEFBDF7DE7BEF75F37F35F5DF6E2F7B
:1004B0007BDD7CFFAFAE97BD6EFEBEEEBDF7DE7B93
:1004C000EFBDF7DE7BEFBDF7DE7BEFBDF7DE7BEF49
:1004D000BDF7DE7BEF75F3BF4FBFBF7FD55EF6BACA
:1004E000F9F7FFABF4B2D7CD7F3FBFAA97BD6EFE41
:1004F000FB7BD5CB5E37FFD5F6DF6E2F7BDD7CFF38
:10050000AFAE97BD6EFEBE7F35BDEC75F3EFF35712
:10051000EF65AF9B7F5F3FBF7F6F6F6B5FFA57FEEB
:10052000F7E26DED4BFF4AFFDEBCAD7DE9AFFCF7B6
:10053000EA6DED4BBFEA6DED4BFFD57AFB45DED69C
:10054000BEF45FE1DFC3DBDA97FE2BFA7B7A5BFB5D
:10055000D27F05BFBFFF15EBAD97BDF7DE7BEFBDCB
:10056000F7DE7BEFBDF7DE7BEFBDF7DE7BEFBDF7A0
:10057000DF61AF9BFFBE7EE3EEBFC7DFF7EFF3F7B0
:10058000FDFBFC7DFFAA7AD97BEFBD777FDFBF9FA4
:10059000DF07BFFFBFEFDFCFDFEF5F552F7BEFBD83
:1005A000F7EEEFFBF7F9FBFE7DFEC6DD7F8F7F8365
:1005B000BD6EFEFBFA2BF6D6CBDE7BEFBDF7DE7B06
:1005C000EFBDF7DE7BEFBDF7DE7BEFBDF7DEFBBFF8
:1005D00001BFFFBFE7DFD3EFEBDE7BEFBD2FFD57A2
:1005E000F5FBFE7DFEBE7F9FBFEFDF63F76FFCF77D
:1005F000E56DEDBFC3DE7BEFBDF7DE7BEFBDF7DE64
:100600007BEFBDF7DE7BEFBDF7DEFBD25BFF2B069A
:10061000BFBFFF0DD87BEFBDF7DE7BEFBDF7DE7B05
:10062000EFBDF7DE7BEFBDF7DE7B5F7AEB5FF1DFDF
:1006300097B7B5FF06FF1EBB7FE3BFCFDFF7EFF332
:10064000F7ADDE7AEBADB7FEABFAFBFDFBF97DBF94
:10065000BFFF0DD87BEFBDF7DE7BEFBDF7DE7BEF95
:10066000BDF7DE7BEFBDF7DE7BEFBDF7DE7BEFBDD9
:10067000F7DE7BEFBDF7DE7BEFBD77FF6F007BEF33
:10068000BDF7DE7BEFBDF7DE7BEFBDF7DE7BEFBDB9
:10069000F7DE7BEFBDF7DE7BEFBDF7DE7BEFBDF76F
:1006A000DE7BEFBDF7EEBF7F160D0A1A00021405C0
:1006B00002160D070E16161B141B0402110E161639
:1006C00016011401161B1916160500031401160154
:1006D000011616090A001A03160101161611121046
:1006E0000C16160101161601150F060C160101163F
:1006F0000D1315140F060C1B1B0D070E1514150FEB
:10070000061304080E14151415140F0E0D0A100C00
:100710001616161616161112080B1616051A0216BC
:10072000011616090C0D1316090C1B16160F1208CC
:100730000E160F0B090C161614141414141B111298
:1007400000021416161616010116160114141416BA
:1007500016010116160114161616160101160503C8
:1007600014141414140104000400180000001A03E7
:100770000D0A18100C17171717170F0B170F060C69
:10078000171717170D1317170F060C171717110E3A
:100790001617170F060C1717090C0500100C0F067B
:1007A0000C170F0B090C0F060C0F060C171B0F066E
:1007B0000C0F060C0F0B1701170F0B170F0B170160
:1007C000170117171B14141B171B17041A00031704
:1007D0001704000305000000000002171717191581
:1007E000161616151B171717011515161615090AD3
:1007F00000020115161516150F1202010115161625
:100800001515160D130101161616160D0A080E0100
:10081000011616160D07120000030116160D070E1D
:1008200017171717090C0D070E17171717170F12A1
:10083000080E171717171717161616161616161668
:100840001616051A00000000001A021601171717E5
:10085000171717170116011717050002051A0316B7
:100860001B171719150104000002090C17011501C7
:10087000141414010F060C01150114141401160FA1
:100880000B0115011414140116161B1B1501141469
:10089000141B1616091315041A000003051A00008C
:1008A000000000001A02040002171715171715019F
:1008B000141401171715171517191414010C17150F
:1008C0001517170114141B060C151715170114140E
:1008D000010F061517171501141401170F060C1731
:1008E000170114140117170F060C17010500031741
:1008F00017170F060C1B0400000000000000000387
:1009000016160D0A1A0000001A02160D070E16160A
:10091000161616010D070E1616050216161B110ED9
:1009200016161604031605031B16161616161605BC
:10093000031601051A0000001A0316160104001818
:100940000000001A02161B161616161616160116A9
:10095000090C16161616161601160F121A000000AC
:10096000001A031616161616161616161616051A59
:1009700000000000001A0217041A00000216160DEB
:10098000131617171717011717110E171616161625
:100990001B1616090C16171717170117170F0B1729
:1009A000160500000316161619161701170F060C68
:1009B000170D131716040000001A00080E1617175B
:1009C00017171717171717171515151514151515C8
:1009D0001515150D0A00180000100C1514110E0D38
:1009E00007060C0F0B1415010D070E0F060C011551
:1009F0001501070E17160F060115141B14171617ED
:100A000016141B14150117161716171601151509BC
:100A10000C141617140D1315150F121A00001A08CE
:100A20000E15151515141515141515151505100C9D
:100A3000151515151515151B0F060C15151515157E
:100A40001501150F060C15151515150115150F06B1
:100A50000C151515151B1515150F060C151514017C
:100A6000141414140F060C14140114141414140F79
:100A70000B14141B14141414140D13141404001860
:100A800000001A080E14141414141414141414145A
:100A9000FFF878C6B58C70380685807FF0C0C0003E
:100AA0000000002010000000000000000000003ED8
:100AB0005B4F5B3E3E6B4F6B3E1C3E7C3E1C183CCE
:100AC0007E3C181C577D571C1C5E7F5E1C00183C2A
:100AD0001800FFE7C3E7FF0018241800FFE7DBE773
:100AE000FF30483A060E2629792926407F0505075A
:100AF000407F05253F5A3CE73C5A7F3E1C1C0808B6
:100B00001C1C3E7F14227F22145F5F005F5F06097A
:100B10007F017F006689956A606060606094A2FFD3
:100B2000A29408047E040810207E201008082A1CC5
:100B300008081C2A08081E101010100C1E0C1E0C91
:100B400030383E3830060E3E0E0600000000000031
:100B5000005F00000007000700147F147F14242AA0
:100B60007F2A122313086462364956205000080772
:100B70000300001C2241000041221C002A1C7F1C93
:100B80002A08083E08080080703000080808080895
:100B9000000060600020100804023E5149453E00FC
:100BA000427F400072494949462141494D3318145A
:100BB000127F1027454545393C4A494931412111A9
:100BC00009073649494936464949291E000014009B
:100BD00000004034000000081422411414141414BE
:100BE000004122140802015909063E415D594E7C1C
:100BF0001211127C7F494949363E414141227F41D1
:100C000041413E7F494949417F090909013E41412E
:100C100051737F0808087F00417F41002040413F19
:100C2000017F081422417F404040407F021C027F28
:100C30007F0408107F3E4141413E7F090909063E7D
:100C40004151215E7F09192946264949493203014C
:100C50007F01033F4040403F1F2040201F3F40385E
:100C6000403F631408146303047804036159494D39
:100C700043007F4141410204081020004141417F6F
:100C800004020102044040404040000307080020E5
:100C9000545478407F2844443838444444283844E5
:100CA00044287F385454541800087E090218A4A41C
:100CB0009C787F0804047800447D40002040403D3B
:100CC000007F1028440000417F40007C04780478B5
:100CD0007C080404783844444438FC182424181848
:100CE000242418FC7C0804040848545454240404A4
:100CF0003F44243C4040207C1C2040201C3C403091
:100D0000403C44281028444C9090907C4464544CBF
:100D1000440008364100000077000000413608001A
:100D200002010204023C2623263C1EA1A161123AC4
:100D30004040207A38545455592155557941215411
:100D4000547841215554784020545579400C1E5216
:100D500072123955555559395454545939555454BA
:100D6000580000457C410002457D420001457C4021
:100D7000F0292429F0F0282528F07C54554500203E
:100D800054547C547C0A097F4932494949323248DB
:100D9000484832324A4848303A4141217A3A424042
:100DA0002078009DA0A07D39444444393D40404016
:100DB0003D3C24FF2424487E4943662B2FFC2F2BE7
:100DC000FF0929F620C0887E090320545479410088
:100DD00000447D413048484A32384040227A007A07
:100DE0000A0A727D0D19317D2629292F28262929E5
:100DF000292630484D402038080808080808080807
:100E0000382F10C8ACBA2F102834FA00007B00002D
:100E100008142A142222142A14089500220095AAE4
:100E2000005500AAAA55AA55AA000000FF001010FC
:100E300010FF00141414FF001010FF00FF1010F03A
:100E400010F0141414FC001414F700FF0000FF004D
:100E5000FF1414F404FC141417101F10101F101F9B
:100E60001414141F00101010F0000000001F1010C8
:100E700010101F10101010F010000000FF101010C4
:100E8000101010101010FF10000000FF140000FFE1
:100E900000FF00001F10170000FC04F414141710CA
:100EA000171414F404F40000FF00F71414141414BD
:100EB0001414F700F7141414171410101F101F1433
:100EC0001414F4141010F010F000001F101F000094
:100ED000001F14000000FC140000F010F01010FFC0
:100EE00010FF141414FF141010101F00000000F065
:100EF00010FFFFFFFFFFF0F0F0F0F0FFFFFF00003A
:100F0000000000FFFF0F0F0F0F0F38444438447CE0
:100F10002A2A3E147E02020606027E027E026355E3
:100F20004941633844443C04407E201E2006027E32
:100F3000020299A5E7A5991C2A492A1C4C72017244
:100F40004C304A4D4D303048784830BC625A463DAE
:100F50003E494949007E0101017E2A2A2A2A2A4463
:100F6000445F444440514A444040444A5140000098
:100F7000FF0103E080FF000008086B6B08361236A3
:100F80002436060F090F0600001818000000101084
:100F9000003040FF0101001F01011E00191D171242
:100FA000003C3C3C3C0000000000F0F89C8E878335
:100FB000878E9CF8F00000FEFF0303030303070E77
:100FC000FCF80000FEFF0303030303070EFCF80018
:100FD00000FFFF00000000000000FFFF0000FEFF18
:100FE0008383838383C7EE7C380000F8FC0E0703FD
:100FF0000303070EFCF800003F7FE0C08080C0E0E4
:101000007F3FFFFF01010101010101FFFF0000FF20
:10101000FF0C0C0C0C1C3E77E3C100007FFFC0C02E
:10102000C0C0C0E0703F1F00001F3F70E0C0C0C0E4
:10103000E0703F1F00007FFFC1C1C1C1C1E3773E27
:101040001C00001F3F70E0C0C0C0E0703F1F0000E8
:1010500000000001FFFF01000000D5F08D14A1C8C1
:1010600081CFD9F1AF2000204E0000307500004044
:101070009C0000204E000030750000409C000020C5
:101080004E000030750000409C0000204E000030F3
:10109000750000409C0000204E00003075000040AC
:1010A0009C0000204E000030750000409C00002095
:1010B0004E000030750000409C0000204E000030C3
:1010C000750000409C0000204E000030750000407C
:1010D0009C0000204E000030750000409C00001F66
:1010E000FFBF8FAB57AFFC3D0F8EE96D4E978D88DC
:1010F000617AF5EAD5ABF37D0EF3A39D2325A77C9A
:1011000065ACCF9B36DD1C3298A48E463FCBB1A791
:10111000E045BDA887BD0F3DAFB1348405B1D549C9
:10112000308CD9B1D7B8E66390C3DE7B5EC691FD43
:1011300011EA4EDC0E84447109040568A4B0455ED2
:10114000DFFFBE5E1EAECBBAACCB1A7F7F3FBF7F48
:10115000368F3DADCBDC7BEFBDF7DEFBB02EE3E899
:101160003F98647AEC691DF6BCACCBBAACCB3AECD8
:1011700079F2B39DFF787F80EBDF8997BDF7DE7B47
:10118000EFBD0FEB948F20A7394FFEF3C9695DD6F1
:10119000655DD6655DD661EFC338F28E632F87FE3D
:1011A00033FEFE5FFC98DBB8CCBDE7655DD6655DC0
:1011B000D6655DE63E8CAF701C87137F7E8F3DAD9C
:1011C000CB3AECBDF7DE7BEFBD0FEB326E3DF2F7B5
:1011D000003FFF7F1FAEB9F5B42EEB32F73EACCB2C
:1011E000BA8C5BAEFCC3591E7B5A873D2FEBB22EE7
:1011F000EBB22E731FC65738AEF1CF98F145E6BF5C
:10120000534F073FD3FD6F30A7396F3CCBE530FE1E
:1012100091E534E729CF3CCD79CA3FB31C0EFD24BC
:10122000CB9155C6BAACCBBAACCBBAACCBBAACCB83
:10123000BAAC7F02E3B22EEBB22EEBB22EEBB22EA3
:10124000EBB22EEBB22EEBB22EEBB22EF9DD3FFF5E
:101250007FDEDCC665EEBDE725FFB8D6E1B04EB94E
:10126000323DF694EFFFBBCA659D7AF4B3DFFFF71A
:10127000FBFD7FBFDFFFF7FBFD7F5DE3B22EEBB22F
:101280002EEBB22EBFE2B22EEBB22EEB32FE157871
:101290005A977559977559977559977559977559FB
:1012A00097755997755997FC6EBF3FBFEFDFCFDF3A
:1012B000EFDFCFDFEFDFCFDFEFDFCFDFEFDFCFDF3E
:1012C000EFDFCFDFEFDFCFDFEFDFCFEF037FFFDF3A
:1012D000E7721A979D3FA519E3D6F53763D8D5A3D2
:1012E000B3315D3DADFD8FB7EB59A70F73F88A633E
:1012F0007AF5EAE8708C26D79B57BD48C6FB477A3B
:10130000F5FAE2EAD5E3C5CBDEFBED7BB3E253476A
:10131000FD043349ACDAED35EBE9295773D0D1E15F
:10132000D2CB1E474DA3E6E06DF6904EAFCE24A380
:10133000C3311ABF005D0FE85897B5F4131C67F06E
:1013400022DF197E688C57ADCEE4F5C3F65D1ABB7B
:10135000F2B8EB9C5BAE1CB2C3375EECBECA655301
:10136000D6F25DE9CDBB6E2F5DB74C6EAB76E5E294
:10137000E194CD495312E3F059F8C41F9BAB57AF2A
:101380005EBD7AF5EAD5AB57AF5EBD7AF5CA7F5F31
:10139000BC00661FC62D57AF5EBDFA154F973E7055
:1013A000255DB5AB76D5AEDA55BB6A26A8B040331D
:1013B0009D5CBA7F0C57AF1E7B5A97759887BDF717
:1013C000BCACCBBA042FEA09F9C7040E3A06867002
:1013D00001000FC0EF1BFDD6BAACCBBAACCBBAAC98
:1013E000CBBAACCBFA562FC701345764C7A12A9D9C
:1013F000A75CF9EF0047E0563C75DFF85DDE7AF355
:101400008F40198698265057AEDCACA51488C6B01C
:1014100084B245DC91050468B00CB596124166CCE7
:101420009E9775426EDCFD478C1EF6BC88B7C0499E
:10143000B80157FE4CB98DCBDC875526B0F81C5F40
:10144000F3D85BE0C260B3986C1607CA853084207D
:101450000A2432ACA476A559196C167F73080B00C8
:10146000020202010009040000010202000005243A
:1014700000100105240101010424020605240600D0
:10148000010705810310004009040100020A000061
:101490000007050202400000070583024000000427
:1014A00003090412010002EF0201404123368000CB
:1014B000010102030141726475696E6F204C4C4357
:1014C0000041726475626F790001020408102040C7
:1014D0008000701D11241FBECFEFDAE0DEBFCDBF4C
:1014E00012E0A0E0B1E0E8E2FDE602C005900D9256
:1014F000A237B107D9F727E0A2E7B2E001C01D92F9
:10150000A836B207E1F71AE0CAE6DAE004C021978C
:10151000FE010E948F32C936D107C9F70E94BD1D56
:101520000C9492360C940000809188020895E3EDAB
:10153000F2E0A0E0B8E000800EBC8111012C119710
:10154000A0FDFDCF0192B9F70DB408952F923F92FF
:101550004F925F926F927F928F929F92AF92BF92C3
:10156000CF92DF92EF92FF920F931F93CF93DF936F
:10157000CDB7DEB72C970FB6F894DEBF0FBECDBF48
:101580002C011A01FA0194913196E490E982892F95
:101590008F778F5F082F10E01E830D839801240D35
:1015A000351D37FD77C110E8411651040CF072C1AA
:1015B0008E2D8F738F5F9B01280F311D37FD6AC100
:1015C000603471050CF066C1991F9927991F9C839F
:1015D00077247394E6FE712C6B0177FF04C0CC2452
:1015E000DD24C61AD70A27E0C222DD249B0177FF3B
:1015F00002C0295F3F4FA90123E0559547952A95E1
:10160000E1F75B834A8377FF0DC0C114D10451F029
:10161000415051095B834A8328E030E0F901EC191D
:10162000FD096F01982F969596959695877009F00C
:101630009F5F37E060E170E020E0B0E0A0E0912C37
:10164000812CE92EF12CFA86E986662463940985BB
:101650001A85801691060CF01DC141E050E05C87B0
:101660004B87FB0193E0F695E7959A95E1F7E20D3C
:10167000F31DE491F0E0CB018770992702C0F59546
:10168000E7958A95E2F7AB014F5F5F4FE0FF07C038
:101690008B859C8501969C878B87BA01E2CF0B8551
:1016A0001C850130110579F5FA0183E0F695E7957F
:1016B0008A95E1F7E20DF31D849190E0477055277C
:1016C00002C0959587954A95E2F781709927019612
:1016D0006E5F7F4F50E040E0162D181B1B874817A8
:1016E000590708F0D2C05C01A41AB50AE32FF0E054
:1016F000EC80E1109DC0EA15FB0508F043C04E0FD9
:101700005F1F30E043C08B859C85019798878F834E
:1017100081E090E00F8002C0880F991F0A94E2F7E1
:10172000019610E000E07801E40EF51EF701F69551
:10173000E795F695E795F695E795E20DF31DE491AB
:10174000AE2EB12CE7E0EE22FF2402C0B594A794A0
:10175000EA94E2F7A0FE0AC0E1E0F0E0002E02C049
:10176000EE0FFF1F0A94E2F78E0F9F1F0F5F1F4FB0
:10177000EF80F8840E151F05B4F20B851C85600FF1
:10178000711FA8CFFB843F0D340FAC01315008F01E
:101790004CC02223D1F11A81180D1830B4F5720112
:1017A000EA0EFB1E30E8E316F10478F530E00C2C6D
:1017B00002C0220F331F0A94E2F717FD0DC000E8A4
:1017C0001003F0011124E40DF51DEA0FFB1FED528B
:1017D000FD4FF080F22AF082C114D104B1F017302D
:1017E000A1F01F3F94F0E12F110FFF0B3196F695FA
:1017F000FE2FEE27F795E795E40DF51DEA0FFB1F89
:10180000ED52FD4F2081232B2083198117FD762473
:1018100011962D813E81A217B3072CF03FEF831A5A
:10182000930AB0E0A0E037E020E04F5F5F4F57CF72
:10183000EA15FB05E8F43730C9F0772079F007E0C6
:1018400010E00E1B1F0BEE24EA94F12C02C0F5945D
:10185000E7940A95E2F78701202B51CF00E81FEFAC
:1018600002C0169507953A95E2F7F6CF2FEF47CFCE
:10187000772029F0EF58FE4FE0812E2B87CF07E02D
:1018800010E00E1B1F0BF801F5CF462D5C81451BA8
:101890004C83DDCE2C960FB6F894DEBF0FBECDBFC5
:1018A000DF91CF911F910F91FF90EF90DF90CF903C
:1018B000BF90AF909F908F907F906F905F904F9070
:1018C0003F902F90089580389105B0F460347105F1
:1018D00098F4E9ECF4E190E1969FD001A07811240E
:1018E000A80F6770E60FF11D9491AD52BD4F4423D0
:1018F00021F08C91982B9C93089590958C9198232E
:10190000FACFFC018091D202882311F13FB7F894FD
:1019100082E08093E9002091F200822F90E0181677
:10192000190614F481E090E0882339F0289844E601
:101930004093D1024091F1004083222339F020915D
:10194000F200211103C02BE62093E8003FBF089569
:101950008FEF9FEF08952FB7F89483E08093E9000D
:101960009091E800892F807295FF04C09091F20059
:1019700080E4891B2FBF08958091C90281110DC099
:1019800082E08093C50284E08093C6021092C80270
:101990001092C70281E08093C90285EC92E008951D
:1019A000CF93DF931F92CDB7DEB76983DC01ED9152
:1019B000FC910280F381E02D41E050E0BE016F5FB9
:1019C0007F4F09950F90DF91CF91089583E0809329
:1019D000E9008091F200882319F08AE38093E800FF
:1019E00008950E94AB0C90E00895CF93DF931F926F
:1019F000CDB7DEB7FC018485958597FD08C02FEF34
:101A00003FEF358724870F90DF91CF910895CE0166
:101A100001960E94810C019719F4898190E0F3CF1F
:101A20008FEF9FEFF0CF0F931F93CF93DF931F9212
:101A3000CDB7DEB78C01FC018485958597FF0BC07F
:101A4000CE0101960E94810C019771F4898190E08A
:101A5000F80195878487F801848595850F90DF913B
:101A6000CF911F910F9108958FEF9FEFF1CFFC0160
:101A70008485958597FD0BC09FB7F89482E080938D
:101A8000E9008091F2009FBF90E0019608959FB712
:101A9000F89482E08093E9008091F2009FBF90E08B
:101AA00008954091BF025091C0022091BD02309133
:101AB000BE0242175307B4F49091E8009570E1F329
:101AC0009091E80092FD19C08093F1008091BF02CF
:101AD0009091C00201968F739927892B19F48EEF8C
:101AE0008093E8008091BF029091C002019690938C
:101AF000C0028093BF0281E0089580E00895DF92E4
:101B0000EF92FF920F931F93CF93DF93D82E8A010A
:101B1000EB017B01E40EF51ECE15DF0559F0D7FE73
:101B200012C0FE0184910E94510D21968111F4CFC3
:101B30000FEF1FEFC801DF91CF911F910F91FF9021
:101B4000EF90DF9008958881EECF0F931F93CF938E
:101B5000DF931F92CDB7DEB782E0898342E450E085
:101B60006DE574E180E80E947F0D0E94BC0CDC01F1
:101B700012960D911C910115110589F0D801ED9176
:101B8000FC910280F381E02DBE016F5F7F4FC801A1
:101B9000099597FD04C0F80100851185ECCF898176
:101BA0000F90DF91CF911F910F910895615030F008
:101BB0002091F100FC0120830196F8CF289884E65B
:101BC0008093D1020895AF92BF92CF92DF92EF92AD
:101BD000FF920F931F93CF93DF936C017B018B01D7
:101BE000040F151FEB015E01AE18BF08C017D10727
:101BF00059F06991D601ED91FC910190F081E02DB1
:101C0000C6010995892B79F7C501DF91CF911F9105
:101C10000F91FF90EF90DF90CF90BF90AF9008951D
:101C2000FC010E94A70E319728F068517C4F8F4F1E
:101C30009F4FF9CFAB01FC010E94A70E64177507F7
:101C40008E079F07C8F308958F929F92AF92BF921D
:101C5000CF92DF92EF92FF920F931F93CF93DF9378
:101C60006C017B018A0180910B01882309F45AC021
:101C70008091D202882309F455C08091C40280FF6C
:101C800005C08091E00082608093E000E801B12C03
:101C90008AEFA82E93E0892E2AE3922E209711F442
:101CA000BB20C9F10E94AB0C811108C0AA94AA20E4
:101CB000C9F181E090E00E94100EF0CF8C171D0654
:101CC00011F00CF08C2F9FB7F8948092E9002091CE
:101CD000E80025FD02C09FBFE1CF282F30E0C21BE6
:101CE000D30BF701815020F041914093F100FACFDE
:101CF000E20EF31EBB2021F09092E800B12CEBCF56
:101D00008091E80085FDE7CF9092E800BB24B39472
:101D1000209709F3F3CF5D9884E68093C3021016F1
:101D200011063CF081E090E0F6019383828310E09D
:101D300000E0C801DF91CF911F910F91FF90EF90CC
:101D4000DF90CF90BF90AF909F908F900895A4E8C0
:101D5000B2E02FB7F8947D918D919C9166B52FBF1D
:101D6000A89B05C06F3F18F47F5F8F4F9F4F22E005
:101D7000660F771F881F991F2A95D1F70895209124
:101D80007902E0917702F0917802CF010296909368
:101D9000780280937702222319F085919491089517
:101DA000808191810895CF92DF92EF92FF92CF933D
:101DB000DF930E94BF0E811520E8920791F4809175
:101DC00071008D7F80937100109291004698479822
:101DD00010927602DF91CF91FF90EF90DF90CF903D
:101DE000089521E020937602813020E8920751F493
:101DF000809174029091750290937802809377029B
:101E00000E94BF0E97FD05C020917302222309F4A2
:101E100054C020917202211150C021E020937A0217
:101E2000EC01DF77209709F04BC081E080937B02C3
:101E300046983FE9C32E3FE0D32EE12CF12CCAEFA8
:101E4000D0E0E0914B07F0914C070995811103C058
:101E500081E080937B0280917A02882329F080912F
:101E60007B02882309F43FC047980E94BF0E009769
:101E7000F1F19C01DE010E943B2FDC01CB0129E046
:101E8000B595A795979587952A95D1F710929000CB
:101E90002AE020939100D0929900C09298008093FC
:101EA0007C0290937D02A0937E02B0937F0280918A
:101EB00071008260809371008DCF10927A02B0CF52
:101EC0009E0150E040E060E472E48FE090E00E9408
:101ED000E72E69017A0181E0C81AD108E108F1080A
:101EE00010927B02AECF4699BFCF479ABECF8FEFFD
:101EF0009FEFDC01CBCF9C01E1E7F0E090819D7F7B
:101F0000908310927902EDE3F7E0F0937802E0938A
:101F10007702F0937502E093740231832083738318
:101F2000628380E090E8958384830C94D30E2D9A8D
:101F300008950C94100E0E948F1C08953E9A3F9AAB
:101F400081E0809388020895480F592F511D14167F
:101F50001506D4F580389105BCF597FF02C090E0D6
:101F600080E04138510514F040E850E0481BFB0187
:101F700077FD379633E0F595E7953A95E1F7F695D5
:101F8000FE2FEE27F795E795E80FF91FED52FD4F6D
:101F90006770772781E090E001C0880F6A95EAF7C3
:101FA000382F213041F4415078F08191DF011197B1
:101FB000832B8C93F8CF8095415030F09191DF01C5
:101FC000119798239C93F8CF08956034710510F40D
:101FD0000C94A40F08952F923F924F925F926F92AC
:101FE0007F928F929F92AF92BF92CF92DF92EF92A9
:101FF000FF920F931F93CF93DF93CDB7DEB72A974E
:102000000FB6F894DEBF0FBECDBF9A8389836A30C6
:1020100061F5DC0155968C91B8E08B9F90011124FD
:10202000E981FA8181899289820F931F928B818B3A
:10203000108A178681E090E02A960FB6F894DEBFEA
:102040000FBECDBFDF91CF911F910F91FF90EF9009
:10205000DF90CF90BF90AF909F908F907F906F90C8
:102060005F904F903F902F9008956D3019F3298124
:102070003A813A872987D9011F96AD90BC90B0E884
:10208000AB16B1040CF07BC0F901C188D288F0E432
:10209000CF16D1040CF073C0D90155966C905597AA
:1020A00045E09501649E200D311D11241216130682
:1020B0000CF065C0262C312C910153E0220F331F08
:1020C0005A95E1F72C0D3D1D121613060CF057C062
:1020D0005496BC91BB83E985FA85F389FC83649FA0
:1020E000B00111249B012655354F3A832983712C69
:1020F000E981FA818491F5E07F1201C080E0460118
:1021000038E0532E282F30E03E832D834C8080FF13
:102110004B80411004C03B818C813817E1F010E006
:1021200000E00615C0F4D501A00FB11FB887AF833A
:10213000F12CE12CE61460F4B701680D791D442DF3
:102140008F8198850E94630CBFEFEB1AFB0AF2CFD8
:102150000F5F1F4FE6CF8D819E81959587955A948D
:10216000820C931C5110CECF7394E981FA81319681
:10217000FA83E983A20CB31CF6E07F12B9CFA985DC
:10218000BA8555962C915597422F50E01F968D9108
:102190009C91B6E02B9F800D911D1124E985FA8555
:1021A000908B87872689222309F444CF6AEF640342
:1021B0009001659F300D112420583F4F2817390793
:1021C0000CF038CFDF010190F081E02D0190F0811B
:1021D000E02D6AE0CD0109952DCF0895089590E096
:1021E00080E0089570E09AE0499F600D711D112410
:1021F00081508A3008F039C0E82FF0E0EE5FFE4EE3
:102200000C948F320C111111151119111D1121117E
:10221000251129112D113111FB01E45DF54F849138
:102220000895FB01E853F64FFACFFB01EC59F64F46
:10223000F6CFFB01E050F74FF2CFFB01E456F74F2A
:10224000EECFFB01E85CF74FEACFFB01EC52F84F11
:10225000E6CFFB01E059F84FE2CFFB01E45FF84F16
:10226000DECFFB01E855F94FDACF80E0089590E02A
:10227000E3EDF2E091119FEF8FEF919391939193A2
:1022800091938150D0F7EDE4F7E0128A118A108A19
:1022900017860895DF92EF92FF920F931F93CF93CB
:1022A000DF937C01D22E8A01060F171FEB0177FF07
:1022B00002C0D0E0C0E0C8010134110514F080E490
:1022C00090E0C817D9073CF44D2DBE01C7010E940C
:1022D000630C2196F0CFDF91CF911F910F91FF906A
:1022E000EF90DF9008950E949B0F82FB882780F972
:1022F00008950E949B0F83FB882780F908952F92F1
:102300003F924F925F926F927F928F929F92AF9285
:10231000BF92CF92DF92EF92FF920F931F93CF93D2
:10232000DF93CDB7DEB760970FB6F894DEBF0FBE70
:10233000CDBF9B878A877D876C872A01288B2DB725
:102340003EB73F872E8720E030E040E85FE3C701DB
:10235000B6010E94B231181634F4C12CD12C50E8C9
:10236000E52E5FE3F52EF2012490319624912F8320
:10237000822D8F7733243394380EA32CB12CB501E2
:102380000B2C000C880B990B0E946B30A701960157
:102390000E94B7310E943A30962E8A859B85890D1E
:1023A000911D97FD06C26A857B85603871050CF02A
:1023B00000C21F811F731F5F812F90E09E838D835A
:1023C000BC01990F880B990B0E946B30A7019601F5
:1023D0000E94B7310E943A30462F8C859D85840F2C
:1023E000911D97FDE6C1AC85BD85A034B1050CF00B
:1023F000E0C1221C2224221C31E0BF81B6FF30E064
:10240000812F869586958695E82FF0E0F987E887F5
:10241000812F877019F03196F987E8876DB77EB7FD
:102420006A197B090FB6F8947EBF0FBE6DBF8DB7DA
:102430009EB701969A8389839981E92FFA812FEFBC
:1024400021938E2F891B8315D8F3F0E0E0E020E084
:10245000902F9170792E66246A94690CC92CD12C26
:10246000921691F0862C821A711001C0822ECF0133
:10247000B6010E946732A981BA81A60FB71F8C925C
:102480002F5FEA0DFB1DECCFADB7BEB7ED81FE812E
:10249000AE1BBF0B0FB6F894BEBF0FBEADBF6DB77E
:1024A0007EB76F5F7F4F7C836B839B81E92FFC81BD
:1024B0002FEF21938E2F891B8117D8F3F0E0E0E0F6
:1024C00020E00270BB24BA94B40EC42ED12C421763
:1024D000A1F01B2D121B011101C0122FCF01B6015B
:1024E0000E946732AB81BC81A60FB71F1C932F5F80
:1024F0008D819E81E80FF91FEACF27E0D22E40E1BF
:10250000842E912C20E0A12CB12C77247394A885E3
:10251000B985BA161B060CF025C1BFEFBB1609F42E
:1025200021C161E070E0F40193E0F695E7959A959A
:10253000E1F7E40DF51DE491F0E0C40187709927FF
:1025400002C0F595E7958A95E2F7A4014F5F5F4FCA
:10255000DF01A170BB27E0FF04C06F5F7F4F4A011E
:10256000E2CF6130710571F5FA0183E0F695E795E8
:102570008A95E1F7E40DF51D849190E047705527A9
:1025800002C0959587954A95E2F781709927019643
:10259000E2E08E0E911C50E040E0672D681B6D83D9
:1025A0004817590708F0DAC0FC01E41BF50B6D2D44
:1025B00070E02110A1C06E177F07C8F5460F571FA6
:1025C000D12C39C07B01F1E0EF1AF10881E090E0F5
:1025D0000E2C02C0880F991F0A94E2F701968D0114
:1025E000040F151FF801F695E795F695E795F69512
:1025F000E795E40DF51DE491F0E00770112702C0A6
:10260000F595E7950A95E2F7E0FF0AC0E1E0F0E012
:102610000A2E02C0EE0FFF1F0A94E2F78E0F9F1FD3
:102620001196AE15BF05DCF2860E971EB4CF7D81E4
:10263000D70ED40EAC01DA94FFEFDF125AC0E98155
:10264000FA81EA0DF11D60816F3F09F444C0AA854B
:10265000BB85A60FB11DBD01A038B105E0F5E1E7CE
:10266000EE2EE1E0FE2EB8E0BB9E6001112410E0EA
:1026700000E0F801EC0DFD1DAB81BC81EA0FFB1FF2
:10268000E081EF3F01F1D701FC91F223E1F0BC853D
:10269000EB0FAE2FA695A695A695A830A0F4F0E86E
:1026A000AF9FD0011124A60FB71FAD52BD4F6C9044
:1026B000E770F0E0EF58FE4FE081F889FF2309F45E
:1026C0004AC06E2A6C920F5F1F4FAFEFEA1AFA0AE8
:1026D0000830110571F6BF81B7FD3725A39427E0B7
:1026E000D22E20E0A31428F0B39467E0D62E20E089
:1026F000A12C4F5F5F4F54CF6E177F07E8F4A7E020
:10270000DA16C1F0332371F0E7E0F0E0E61BF70BD7
:10271000AFEFB0E002C0B595A795EA95E2F7FD01ED
:102720002E2B4CCFE0E8FFEF02C0F695E795DA9448
:10273000E2F7F6CF2FEF42CF332331F06F587E4FC1
:10274000FB016081262B77CFE7E0F0E0E61BF70B7B
:10275000EF58FE4FF6CFE0956E22B4CFE72DE21989
:102760002E2ED5CE2E853F850FB6F8943EBF0FBED8
:102770002DBF8E859F850FB6F8949EBF0FBE8DBF6F
:1027800060960FB6F894DEBF0FBECDBFDF91CF913C
:102790001F910F91FF90EF90DF90CF90BF90AF907F
:1027A0009F908F907F906F905F904F903F902F9071
:1027B00008956E857F850FB6F8947EBF0FBE6DBFFE
:1027C000D8CFEDE4F7E0908B8787728B618B458BD8
:1027D000F90101900020E9F73197AF01421B530B3B
:1027E000B9018DE497E00C94E30D60919102709132
:1027F0009202809193029091940228EE33E040E09F
:1028000050E00E94192F20FD1DC0E091B702F09109
:10281000B80290913B078081891750F42FE931E08D
:1028200041E050E060E370E080E490E00E94E1135A
:1028300028EA31E041E050E068E370E080E490E0B5
:102840000C94E1130895E091B702F091B8028081F1
:102850001F928F9382EB91E09F938F9385E992E093
:102860009F938F930E94BA330F900F900F900F9009
:102870000F900F900895282FFB01CB016AE070E0C4
:102880000E946732CB0164E670E00E9467329F933A
:102890008F93CF0168EE73E00E9467327F936F934E
:1028A000822F022E000C990B9F932F938BEB91E0BC
:1028B0009F938F9385E992E09F938F930E94BA3301
:1028C0008DB79EB70A960FB6F8949EBF0FBE8DBF08
:1028D0000895EF92FF920F931F93CF93DF93C5E17B
:1028E000D0E081E3F82E10E000E09CE0E92EE091DA
:1028F000B702F091B80280818150990BE89EF001F7
:10290000E99EF00D1124E00FF11FE959FF4E65918A
:102910007591859194918F2D0E943B1425E932E0A9
:1029200041E050E0BE018AE490E00E94E1130C5FB8
:102930001F4FF394289684E3F812D9CFDF91CF91FB
:102940001F910F91FF90EF9008952F923F924F9219
:102950005F926F927F928F929F92AF92BF92CF922F
:10296000DF92EF92FF920F931F93CF93DF93CDB738
:10297000DEB762970FB6F894DEBF0FBECDBF2090D2
:10298000B7023090B802F101828D938DA48DB58D80
:10299000468D578D60A171A1AB01772757FD7095CA
:1029A000672FCD01CC978130F2E09F0714F080E0D3
:1029B00092E097FF02C090E080E09A012E51310929
:1029C0003A8329832134324024F0E0E4F2E0FA83B0
:1029D000E98329813A813C832B8337FF02C01C8223
:1029E0001B829C012F73332744275527421B530B0F
:1029F0005A8349830B811C810F731127119501950F
:102A00001109EB81FC8126E0F595E7952A95E1F720
:102A1000FA8BE98B898836E0959587953A95E1F7A9
:102A2000682ED12CC12C3396FC83EB839C012B5F49
:102A30003F4F3E872D87AC015527588B4F8789899B
:102A40009A898C0D9D1DEB81FC81E817F9070CF428
:102A5000B3C0FAE08F1609F4AFC0762CE980FA8093
:102A6000B12CA12C9801295C3F4F3E832D83A801F6
:102A7000445F5F4F58874F83C8010D969A878987B7
:102A8000F801F396FC87EB872801F2E34F0E511C07
:102A90008F8598898A0D9B1D2D853E8528173907BE
:102AA0000CF483C039E0371508F47FC0482D672D3A
:102AB000F10180810E94F210982EFBE149EA52E177
:102AC000F81740F0E82FF0E0EE0FFF1FEE5CFE4F2E
:102AD00040815181B801C7010E94A60A27E129154A
:102AE00040F439E19316D9F1391558F048E19416BC
:102AF00069F190E4E90EF11C7394EFEFAE1ABE0A8F
:102B0000C7CF5AE19516A1F18BE19812F2CF21E0DF
:102B100040E450E0B801C7010C960E944A1121E040
:102B200040E450E0B801C7010D960E944A1121E02F
:102B300040E450E0B801C701C3960E944A1121E069
:102B400040E450E0B801C701C29606C021E040E46D
:102B500050E0B801C701C7960E944A11CACF21E0D0
:102B600040E450E06D817E81C7010E94E50FC1CF36
:102B700021E040E450E06F817885C7010E94E50FB5
:102B800021E040E450E069857A85C7010E94E50FA5
:102B900021E040E450E06B857C85C7010E94E50F91
:102BA00021E040E450E0B201DFCF005C1F4F83948E
:102BB000FFEFCF1ADF0A43CFF101428D538D648DB1
:102BC000758DAB01772757FD7095672F5E834D8319
:102BD000868D978DA0A1B1A1CD01BB2797FDB095A2
:102BE000AB2F8C019A014C33510544F047345240CD
:102BF0000CF4E5C12A5032403E832D830E3111057D
:102C00003CF0073612400CF4DFC18C010A5412402C
:102C1000F10112AEC8010596482F4770869586953A
:102C20008695F0E88F9FC00111248D529D4F2D8114
:102C30003E812B5F3F4F820F911DFC01808190E010
:102C400021E030E0042E02C0220F331F0A94E2F785
:102C50008223932302C0959587954A95E2F78823AE
:102C600019F081E0F10182AF20E030E040E251E470
:102C7000F10162A173A184A195A10E94B7310E94C4
:102C800033300E946B306B017C0122ED33E54BE762
:102C900050E40E94B72F87FDA6C12DED3EE74CE31F
:102CA00051E4C701B6010E94B72F87FD90C123E60A
:102CB00034E14DE951E4C701B6010E94B72F87FD09
:102CC00088C128E539EE4BED51E4C701B6010E94F9
:102CD000B72F87FD80C126E23FE54DE052E4C701F2
:102CE000B6010E94B72F87FD78C120EA39EC4CE28B
:102CF00052E4C701B6010E94B72F87FD70C12AE1D7
:102D000034E34CE452E4C701B6010E94B72F87FDBB
:102D100068C125E93EE94BE652E4C701B6010E94CD
:102D2000B72F87FF60C187E0815060E9662E6AE0B7
:102D3000762E7DE9472E7AE0572E873068F490E0B2
:102D4000880F991FFC01EA5EFE4F608071808C5DE8
:102D50009E4FFC0140805180F301F491F983F20110
:102D6000F491FB83912C812CF12CE12CD12CC12CE2
:102D7000B12CA12C87E090E08A199B094B81242F6C
:102D800030E0082E02C0359527950A94E2F720FD21
:102D900015C0E9814E2F50E002C0559547958A95A0
:102DA000E2F74095509541705527B8016E0D7F1D93
:102DB0008D819E818C0D9D1D0E94630CFFEFAF1ACB
:102DC000BF0A28E0A216B10479F43FEF831A930AF0
:102DD000F301E80DF91D44914983F201E80DF91D55
:102DE00054915B83B12CA12C8FEFC81AD80A9AE0BA
:102DF000C916D10429F4EFEFEE1AFE0AD12CC12C2A
:102E00002AE0E216F10409F0B5CFF1018789282FF5
:102E100030E0F9013296EE0FFF1FE20DF31D019035
:102E2000F081E02DCF01B7010E946732CB0164E64B
:102E300070E00E9467329F938F93CF0168EE73E03A
:102E40000E9467327F936F93F101808D1F928F9361
:102E5000818D1F928F932F5F3F4F3F932F9387EC6E
:102E600091E09F938F9385E992E09F938F930E94C7
:102E7000BA3325E932E041E050E070E060E090E0F4
:102E800080E00E94E113A091B702B091B802EC91EA
:102E9000F0E0EE0FFF1FEB5DF84F608171810FB620
:102EA000F894DEBF0FBECDBF50968C91882309F4F5
:102EB0009CC08AE20E943B1425E932E041E050E0E8
:102EC00068E070E090E080E00E94E11340E750E0AD
:102ED0005A83498320E046E050E070E060E0898159
:102EE0009A810E944A1189819A8101969A838983E5
:102EF0008038910579F7E091B702F091B80282AD80
:102F0000882311F182A993A9A4A9B5A9892B8A2B99
:102F10008B2BD1F0878990E00296880F991FE80FDC
:102F2000F91F8081918164E670E00E946732CB01D5
:102F300063E070E00E946732892B31F46EE170E04B
:102F400084E690E00E947B0F1A8219820091B702FA
:102F50001091B802E981FA81BF01FF0F880B990B2C
:102F60000E946B306B017C01F80122A933A944A9AE
:102F700055A9A3E0B0E00E94062F0E946B3020E02C
:102F800030E040E857E30E94B7319B01AC01C70134
:102F9000B6010E94B72F181654F121E047E050E027
:102FA00070E060E089819A818F589F4F0E944A119A
:102FB00029813A812F5F3F4F3A832983C7CF4CE362
:102FC00050E05E834D831ACE0EE110E021CE81E009
:102FD000ABCE82E0A9CE83E0A7CE84E0A5CE85E08B
:102FE000A3CE86E0A1CE80E09FCE82E463CF20E036
:102FF0004FE066E070E081E790E00E94A40FF801E6
:103000008489882309F44CC02CED31E043E050E082
:1030100064E170E089E090E00E94E11320E330E099
:103020003A83298320E040E450E069817A8190E08E
:1030300080E00E94E50F49815A814F5F5F4F5A83BC
:1030400049834034510571F725EE31E041E050E00D
:1030500060E370E090E080E00E94E11326EF31E051
:1030600041E050E068E370E090E080E062960FB6E7
:10307000F894DEBF0FBECDBFDF91CF911F910F91AE
:10308000FF90EF90DF90CF90BF90AF909F908F9088
:103090007F906F905F904F903F902F900C94E11332
:1030A00062960FB6F894DEBF0FBECDBFDF91CF9111
:1030B0001F910F91FF90EF90DF90CF90BF90AF9056
:1030C0009F908F907F906F905F904F903F902F9048
:1030D00008950C94AF2ECF93DF93009761F0EC012D
:1030E0008B819C81009711F00E946B18CE01DF91BB
:1030F000CF910C943133DF91CF9108952F923F926D
:103100004F925F926F927F928F929F92AF92BF92F7
:10311000CF92DF92EF92FF920F931F93CF93DF93A3
:1031200000D01F92CDB7DEB7E091B702F091B802A0
:1031300084E6818382838383148A108E118E818931
:1031400092890E946B18D12CC12C10E000E095E010
:10315000292E2BED422E2FE0522E29EC622E2FE34A
:10316000722EF12CE12C3C2C46010D2C000CAA08EF
:10317000BB08E9828091B7029091B8029B838A8351
:103180004E2D632DDC018C910E94F210883109F0E4
:1031900088C0C501B4010E946B3020E030E040E8F7
:1031A00052E40E94B73120E030E040E857E40E944A
:1031B000B7310E943330EA81FB81628F738F848F35
:1031C000958FB7010F2C000C880B990B0E946B3068
:1031D00020E030E040E852E40E94B73120E030E0E7
:1031E00040E052E40E944B2F20E030E040E850E401
:1031F0000E944A2F20E030E040E857E40E94B731B7
:103200000E943330AA81BB815E966D937D938D932E
:103210009C939197FD0142A253A264A275A2BFEFB5
:10322000EB1AFB0AEAE0EE16F10409F0A2CFFFEF79
:10323000CF1ADF0A2AE0C216D10409F092CFE0913A
:10324000B702F091B802138A178A108A1582148285
:1032500017821682118610861386128615861486AA
:10326000A081B0E0AA0FBB1FAB5DB84F8D919C91C0
:103270009787868712AE0F900F900F90DF91CF91B6
:103280001F910F91FF90EF90DF90CF90BF90AF9084
:103290009F908F907F906F905F904F903F902F9076
:1032A0000895893109F04AC0C501B4010E946B300C
:1032B00020E030E040E852E40E94B73120E030E006
:1032C00040E052E40E944B2F20E030E040E850E420
:1032D0000E944A2F20E030E040E857E40E94B731D6
:1032E0000E943330AA81BB815A966D937D938D9352
:1032F0009C935D97B7010F2C000C880B990B0E94D3
:103300006B3020E030E040E852E40E94B73120E02A
:1033100030E040E857E40E94B7310E943330EA8140
:10332000FB81668F778F80A391A38BED9FE0A9E44B
:10333000B0E482A393A3A4A3B5A371CF8A51823032
:1033400008F06DCF85E090E001151105E1F40E94D1
:1033500095328C01DC01E22D1D92EA95E9F7AA81F4
:10336000BB8152969C938E935197F80130822981AC
:1033700021831282AA81BB8158968C9158978F5FC6
:1033800058968C934CCF0E949532FC01222D1192BD
:103390002A95E9F7D80114969C938E9313978C0184
:1033A000E4CF1F920F920FB60F9211248F939F9329
:1033B0008091E1009091E100937F9093E10083FF81
:1033C0000FC01092E90091E09093EB001092EC0096
:1033D00092E39093ED001092D20298E09093F00067
:1033E00082FF22C093E09093E9009091F20099232C
:1033F00019F09AE39093E8009091C302992341F069
:103400009091C30291509093C302911101C05D9AB3
:103410009091D102992341F09091D10291509093D3
:10342000D102911101C0289A84FF18C08091E20056
:103430008E7E81608093E2008091E1008F7E809398
:10344000E1008091C4028E7E80618093C4029F91CE
:103450008F910F900FBE0F901F90189580FFF7CFA0
:103460008091E2008E7E80618093E2008091E10095
:103470008E7E8093E1008091C4028E7E8160E5CFD4
:103480001F920F920FB60F921124CF92DF92EF92FC
:10349000FF920F931F932F933F934F935F936F93DD
:1034A0007F938F939F93AF93BF93EF93FF93CF93AC
:1034B000DF93CDB7DEB76C97DEBFCDBF1092E900CA
:1034C0008091E80083FF25C068E0CE0145960E9408
:1034D000D60D82EF8093E8008D8987FF39C09091E7
:1034E000E80090FFFCCF982F907609F034C19E89B8
:1034F0004F89588D2F89F88C911131C0803861F532
:103500008091C2028093F1001092F1008EEF8093BF
:10351000E8006C960FB6F894DEBF0FBECDBFDF910A
:10352000CF91FF91EF91BF91AF919F918F917F913B
:103530006F915F914F913F912F911F910F91FF904C
:10354000EF90DF90CF900F900FBE0F901F901895C7
:103550009EEF9093E800C7CF1092F100D5CF913045
:1035600059F48111D3CF4130510581F68091C202C7
:103570008D7F8093C202CACF933049F48111C6CFA8
:103580004130510519F68091C2028260F2CF953028
:1035900041F48091E80080FFFCCF20682093E30095
:1035A000B5CF963009F0A9C00B8D1C8D22E010928A
:1035B000E9001092C0021092BF02F2122EC01092C7
:1035C000BE021092BD020E94A50D1F8299E0998350
:1035D000FA8291E09E8390EA98879AEF99872091EA
:1035E000BF023091C002275F3F4F3C832B838D8306
:1035F0001092E9001092C0021092BF021093BE0216
:103600000093BD0249E050E0BE016F5F7F4F80E054
:103610000E947F0D0E94A50D79CF1093BE020093EA
:10362000BD020E94BC0CDC0112960D911C9101158B
:10363000110509F40AC1D801ED91FC910480F581CE
:10364000E02DBE016B5E7F4FC8010995009709F020
:10365000F7C0F80100851185EACFF3E0FF120EC034
:103660008F89882309F440C0823061F440E867E024
:1036700081EC94E10E94F81C811148CF81E2809393
:10368000EB0047CF813029F440E86BE085EB94E113
:10369000F1CF833099F70E94BC0CDC011296ED90BB
:1036A000FC908E010F5F1F4F6801E114F10479F067
:1036B000D701ED91FC910680F781E02DB801C7019B
:1036C0000995080F111DF701E084F184EECFD801B0
:1036D0001C92F60101900020E9F73197BF016C19A7
:1036E0007D0940E0C601C6CF6FE974E1FB0144915A
:1036F00050E080E80E947F0D09CF973009F4BECFDB
:10370000983021F481E08093F10000CF993009F0E6
:10371000FDCE837009F0B2CFEBE6F1E081E031E05D
:1037200096E32191222371F08093E9003093EB001E
:10373000DF0111972C912093EC009093ED008F5FA7
:10374000873079F78EE78093EA001092EA008F893C
:103750008093D202DBCE8B8D9C8D1092E90010926B
:10376000C0021092BF029093BE028093BD02898D69
:1037700081114BC08E899D89913A49F4813209F0BB
:103780007DCF47E050E064E071E080E0B3CF91325C
:1037900009F074CF833269F48F89988DB0E0A0E08E
:1037A0008093000190930101A0930201B093030163
:1037B000ADCE803209F04FC08091E80082FFFCCF8F
:1037C00067E084E091E00E94D60D8BEF8093E800E3
:1037D0008091040190910501A0910601B09107012B
:1037E000803B9440A105B10569F480910B0180FDF7
:1037F00009C088E78093C102809164008F7D809327
:10380000640084CE1092C10281CE0E94BC0CDC0107
:1038100012960D911C910115110509F42FCFD801B5
:10382000ED91FC910190F081E02DBE016B5E7F4F28
:10383000C801099581116ACEF80100851185EBCF89
:10384000181619060CF462CE19CFF1E0FF1205CF5D
:1038500063EA74E14BCF823209F058CE8F898093AE
:103860000B01B6CF0F930FB70F931F9211248F93B5
:103870009F93EF93FF93E9E8F2E08091830291E058
:103880008D5F8D3710F08D579395809383028081E3
:10389000890F80839181911D91830281011D028393
:1038A0008381811D838309270F7009270295009367
:1038B000820235D0811100938002803989F4009111
:1038C0008102901B963070F087E780930008809308
:1038D000010888E198E08093600090936000FFCF3A
:1038E000909381028091C102815018F08093C102AF
:1038F00059F3E4E8F2E0808191810196808391831D
:1039000082819381811D911D82839383FF91EF9129
:103910009F918F911F900F910FBF0F9118958FB1AD
:103920008095807F669B88601C9B846008951F92B1
:103930000F920FB60F9211242F933F934F935F93E3
:103940006F937F938F939F93AF93BF93EF93FF9367
:1039500080917C0290917D02A0917E02B0917F02C5
:10396000892B8A2B8B2B09F440C080917B0281111B
:103970000BC088B190E4892788B980917A028823A6
:1039800019F088B1805888B980917C0290917D02AD
:10399000A0917E02B0917F02181619061A061B0626
:1039A0009CF480917C0290917D02A0917E02B09166
:1039B0007F020197A109B10980937C0290937D0257
:1039C000A0937E02B0937F02FF91EF91BF91AF91E0
:1039D0009F918F917F916F915F914F913F912F9127
:1039E0000F900FBE0F901F9018950E94D30EECCF32
:1039F000EF92FF920F931F93CF93DF93F82E192F1F
:103A0000E62E042F81E0860F880F0E94510D83E07F
:103A10000E94510DCF2DD12FEC0EFD2EF11CCE1595
:103A2000DF05B9F007FF13C0FE0184910E94510D1C
:103A3000182F80E00E94510D812321968111EFCF34
:103A4000DF91CF911F910F91FF90EF9008958881A2
:103A5000EDCF81E0F5CF0F931F93CF93DF938C01D0
:103A600081E090E00E94691880FF32C08AE090E017
:103A70000E9469189FEF980F9E3F50F522E330E0B7
:103A8000D80150963C932E931F9728E330E052962E
:103A90003C932E935197CBE0D0E0D801ED91FC916F
:103AA0000190F081E02D682FC8010995CE010E9498
:103AB00069182196C131D10581F780E00E94970AEB
:103AC00088EE93E0DF91CF911F910F910C94990FA5
:103AD000DF91CF911F910F91089504970C942B1DA6
:103AE000E3EDF6E01382128288EE93E0A0E0B0E00E
:103AF00084839583A683B7838DE791E09183808348
:103B00008FEF9FEF95878487E3E2F7E08DE095E004
:103B10009183808382E090E09383828381E0808F31
:103B2000118EEDE4F7E0138212821186128690E185
:103B300093871086178215862FE831E03183208322
:103B40002DE931E035832483108A1786128A118A81
:103B5000838B148A858B168A84E99AE090934C07AC
:103B600080934B0780E090E890934A078093490741
:103B700046983E9A47983F9A0895CDB7DEB7CA5AFD
:103B8000D109DEBFCDBF789483E084BD83E085BDDD
:103B900081E080936E00E1E8F0E083E08083E0E87C
:103BA00081E08083E1E983E08083E0E981E0808354
:103BB000E1EC87E08083E3EC81E08083E0EC82E06D
:103BC0008083E2EC81E08083EAE787E0808380689D
:103BD00080831092D2021092C2021092C40280918D
:103BE000D70081608093D70080EA8093D80089B5A0
:103BF000806189BD89B5826089BD09B400FEFDCFB1
:103C000081E090E00E94100E8091D8008F7C80614E
:103C10008093D8008091E000807F8093E0008091C5
:103C2000E1008E7E8093E1008DE08093E200559A62
:103C3000209A8AE190E00E9495328C018AE1D801B5
:103C40001D928A95E9F78DE095E0F80191838083D4
:103C500082E090E09383828381E0808F4AE150E0AC
:103C60006CE273E0C8010E949F2ED8018D919C9157
:103C70008D30954009F074C0F801828193810297DC
:103C800009F06EC08AE1DE01A759BF4F01900D9285
:103C90008A95E1F78AE1FE01E759FF4FA3E2B7E019
:103CA00001900D928A95E1F788E490E00E949532A8
:103CB000FC0188E4DF011D928A95E9F712AEDF016D
:103CC000AC5BBF4F8FEF8C93F093B802E093B702D9
:103CD00081E0808391EC90937C0091EF95B997EE11
:103CE00094B994E39BB994EF9AB9769A6E9890EF51
:103CF00091BB10BA90E59CBD8DBD85E090E00E941F
:103D0000990F5F9902C05F9AF8CF5C98EAE5F0E1FD
:103D10009DE085918EBD00000DB407FEFDCF8EB5F0
:103D20009A95B9F75C9A81E88093640081E080936A
:103D300065000E94970A0E949B0F87FF2AC05C982B
:103D400085EA8EBD00000DB407FEFDCF8EB55C9AEE
:103D50002E982F982D9881E083BF889513BEFCCFB5
:103D6000C8010E9431338AE190E00E949532FC0143
:103D70008AE1DF01C82E1D92CA94E9F72DE035E0F3
:103D80003183208322E030E03383228391E0908FDF
:103D90007ACF0E949B0F82FF48C02D980E949B0FF4
:103DA00084788438E1F40E94970F88EC90E00E94B8
:103DB000990F2F9882E090E00E94AF2E8F3F29F05C
:103DC0006FEF82E090E00E94D92E84EF91E00E9494
:103DD000990F2F9A0E949B0F84788438D9F30E9400
:103DE0009B0F84718431E1F40E94970F88EC90E07E
:103DF0000E94990F2E9882E090E00E94AF2E8823B7
:103E000029F060E082E090E00E94D92E84EF91E0FA
:103E10000E94990F2E9A0E949B0F84718431D9F3CE
:103E200088EC90E00E94990FB4CF0E94970F82E037
:103E300090E00E946918882309F47FC00E949E0FB9
:103E400081E090E00E946918B82FB4707B2E81FF4A
:103E500011C0B1112E9800EF1FEF68E0E62EF12C93
:103E600078E5672E0E949B0F86FF6CC02E9A2F9AD2
:103E70000E94970F82E390E00E94990F0E949B0F8F
:103E80008111F8CF81E280935807809164008E7F82
:103E90008093640080917A00806480937A0080919E
:103EA0007A0086FDFCCF00917800109179000E9485
:103EB000A70EAB01BC01C801B0E0A0E0DC0199276E
:103EC00088276C017D01C40ED51EE61EF71EC701B2
:103ED000B601209164002160209364006115710592
:103EE0008105910511F00E94962E0E949E0F80E0A0
:103EF0000E94970A0FE410E00C0F1D1F085E1F4F71
:103F0000C755DF4F19830883C95AD0409091890261
:103F100080915907192F181B812F20915A072223AE
:103F200009F4A7C010935B0710925A0780E090E055
:103F3000892B61F30E940000E9CF109288023E981D
:103F40003F987ECF772029F00430110511F42E9A86
:103F50002F9881E00E94970A980117FF04C022273A
:103F60003327201B310B27703327C80117FD079615
:103F700053E0959587955A95E1F717FF05C001978E
:103F8000F701E21BF30B9F01BC017695762F6627A4
:103F9000779567956D527D4FB0E0A0E02701421AFA
:103FA000530A8F3FFFEF9F070CF43FC06A9E5001FA
:103FB0006B9EB00C112450E040E0F501E655F04F47
:103FC0005F014B01F0E88F0E911C8F3F980791F035
:103FD000F501E40FF51FE4916B01C40ED51EF0E06E
:103FE0001F01022E01C0220C0A94EAF7F601348860
:103FF0002328248A2115310599F0F501E40FF51FD6
:10400000E4916401C40ED51EF0E01F01042C02C02F
:10401000359427940A94E2F7F60134882328248AF9
:104020004F5F5F4F4835510581F6019660587F4FCD
:104030001197E1F480E00E94970A8FE090E00E94DF
:10404000990F0F5F1F4F0931110509F00BCF772032
:1040500011F02F9A2D9880E991E00E94990F0E940B
:10406000970F8DE497E00E942B1D04CFA1E0B0E0F4
:1040700098CF20915807121748F48F5F821708F0E5
:1040800055CF81E083BF889513BE50CF81E08093E8
:104090005A079093590780915407909155070196BC
:1040A00090935507809354078091910290919202CA
:1040B000A0919302B091940280938D0290938E020E
:1040C000A0938F02B09390022FB7F8948091890249
:1040D00090918A02A0918B02B0918C022FBF8093A5
:1040E000910290939202A0939302B0939402409114
:1040F0008D0250918E0260918F0270919002841B0C
:10410000950BA60BB70B09F444C08093B3029093B0
:10411000B402A093B502B093B60210925D0710925C
:104120005C0710925F0710925E078091560780939C
:1041300057070E949B0F809356078090B302909080
:10414000B402A090B502B090B6028092B9029092EB
:10415000BA02A092BB02B092BC022090B70230908B
:10416000B80281010D5B1F4FD8018C91863009F494
:10417000F2C5E0F4813009F482C008F450C0843004
:1041800009F472C1853009F499C280E00E94970A4F
:10419000CDCE21E030E040E050E02093B3023093F8
:1041A000B4024093B5025093B602B7CF8A3009F4F7
:1041B000A9C7D8F4873009F479C6883031F7F101FE
:1041C000EC5BFF4F9081983009F49AC68083329659
:1041D000A8EECA2EA3E0DA2ED182C082D101579672
:1041E0001C92579750961C92D0CF823611F40C94A3
:1041F0004C2C833651F6F101EC5BFF4F90819336E6
:1042000011F40C94052DD10157961C92808332969F
:1042100098EEC92E93E0D92ED182C082B6CFD101BB
:10422000AC5BBF4F8C91F101EA5BFF4F882391F0AB
:104230001C92B8EECB2EB3E0DB2ED182C0820E945E
:1042400037114DEC52E170E060E090E080E00E94B8
:10425000A60A9BCF28EE821623E09206A104B104A1
:1042600030F48081918188199909918380838081BC
:10427000918197FF8ACF81E0D8018C9386CFF1019D
:10428000EC5BFF4F9081913011F080837ECF0E94D4
:1042900037114DEC52E170E060E090E080E00E9468
:1042A000A60A7101B6E4EB0EF11CF7018081918141
:1042B000181619062CF4881999099183808326C051
:1042C0000E949B0F87FF0FC0D7018D919C911816FC
:1042D00019064CF0F101EB5BFF4F8081882309F454
:1042E0009CC081507FC00E949B0F84FF07C0F701D4
:1042F00080819181181619060CF066C00E94791110
:10430000811172C00E949B0F85FD7CC0F1018689DE
:10431000882371F0EB5BFF4F8081813009F481C00D
:1043200008F47DC0823009F482C0833009F49AC059
:10433000E091B702F091B802EB5BFF4F10812AE0E9
:1043400032E041E050E06EE170E08AE590E00E94EA
:10435000E11327E232E041E050E066E270E08AE5F6
:1043600090E00E94E1132FE032E041E050E06EE285
:1043700070E08AE590E00E94E11325E132E041E03F
:1043800050E066E370E08AE590E00E94E1138091DE
:104390003C07882351F02AE132E041E050E06EE230
:1043A00070E088E790E00E94E113F8E01F9FB00101
:1043B0001124625E7F4F2AE132E041E050E084E563
:1043C00090E00E94E113E1CEF101EB5BFF4F8081B1
:1043D000833039F4108288EC90E0D7018D939C9360
:1043E00095CF8F5F8083F7CFF70180819181181679
:1043F00019060CF487CF81E0D10156968C9388EC96
:1044000090E05BCFD7018D919C91181619060CF4A2
:104410007DCF82E6F801808379CF83E0E3CF80917E
:104420003B07D1018C9384E0F801808381CF809198
:104430003C0791E0892780933C07D10156961C9256
:104440008AE1E3E2F7E0DE01D59601900D928A95CC
:10445000E1F74AE150E06CE273E0CE01C5960E94BC
:10446000B72E66CF83E6E0CFD101AC5BBF4F9C9106
:10447000F101EA5BFF4F9430E1F18C93A8EECA2E74
:10448000A3E0DA2ED182C0820E94371110E0B12C55
:10449000A12C712C912C812C412F672DD1018C9155
:1044A0000E94F21049EA52E18C3140F4E82FF0E02A
:1044B000EE0FFF1FEE5CFE4F408151816DECC62E6A
:1044C0006CECD62EED2C6DE3F62E00E021E0B5016C
:1044D000C4010E947F117394B6E08B0E911CEAE038
:1044E0007E12DACFF6E0AF0EB11C1F5F1A3089F6EC
:1044F0004CCE80819181881999099183808300E451
:1045000010E020E040E450E070E060E0C8010E946C
:104510004A110F5F1F4F0038110599F70E942314AD
:1045200025E932E041E050E070E060E08AE490E0AC
:104530000E94E11321E040E468E070E080E490E054
:104540000E94A40FE091B702F091B802E081F0E080
:10455000EE0FFF1FEB5DF84F6081718182E40E94D6
:104560003B1425E932E041E050E06AE070E08AE483
:1045700090E00E94E11321E040E463E170E080E418
:1045800090E00E94A40F0E94691421E040E46EE2D2
:1045900070E080E490E00E94A40FE091B702F091F7
:1045A000B802EA5BFF4F808191811816190624F149
:1045B0006091910270919202809193029091940285
:1045C00028EE33E040E050E00E94192F20FD14C097
:1045D0002CE132E041E050E060E370E080E490E004
:1045E0000E94E11324E232E041E050E068E370E031
:1045F00080E490E00E94E1130091B7021091B802AC
:10460000780126E4E20EF11CD7018D919C911816D9
:1046100019060CF4BACD0E947911882359F0F801DB
:10462000ED5BFF4F80818F5F808384E690E0F70130
:10463000918380830E947311882369F081E0F801DF
:10464000ED5BFF4F8083D80156961C9284E690E084
:10465000F701918380830E949B0F87FF18C084E637
:1046600090E0D7018D939C93F801808190913B0756
:10467000891710F48F5F80838FEFF801EC5BFF4F99
:104680008083D8018C918B3010F08AE08C930E944B
:104690009B0F84FF7ACD84E690E0F70191838083BD
:1046A000D8018C9181508C939FEFF801EC5BFF4F08
:1046B000908381116ACD81E0F801E7CDF101EC5BD7
:1046C000FF4F908181010A5B1F4F953049F0808335
:1046D00080E797E1D8018D939C930E947E1855CD79
:1046E0000E943711F80160817181072E000C880B40
:1046F000990B0E946B309B01AC0160E070E88BEB82
:1047000095E40E944A2F20E030E84BEB55E40E94EC
:10471000C12F6B017C0126E636E646E65FE30E9488
:10472000B7312DEC3CEC4CEC5DE30E944B2FCB55AC
:10473000DF4F688379838A839B83C55AD04020E00A
:1047400030E048E652E4C701B6010E94B73120E0EC
:1047500030E040EC50E40E944B2F0E94A6300E94B3
:104760003330CD57DF4F688379838A839B83C35867
:10477000D040D1015A966D917D918D919C915D971C
:104780000E946B3020E030E040E857E30E94B731F0
:1047900020E030E040E852E40E944A2FC557DF4F46
:1047A0006883CB58D040C457DF4F7883CC58D04073
:1047B000C257DF4F8883CE58D040CE56DF4F988304
:1047C000C259D0409B01AC01C701B6010E94B7316C
:1047D0009B01AC010E944B2FC957DF4F6883C7581C
:1047E000D040CA56DF4F7883C659D0402C01F10122
:1047F000668D778D80A191A10E946B3020E030E022
:1048000040E857E30E94B73120E030E040E052E456
:104810000E944A2FC856DF4F6883C859D040C456FB
:10482000DF4F7883CC59D0408C019B01AC01C7018C
:10483000B6010E94B7319B01AC010E944B2F3B0196
:10484000C056DF4F8883C05AD040CC55DF4F988385
:10485000C45AD04020E030E0A901C957DF4F688139
:10486000C758D040CA56DF4F7881C659D040C201E0
:104870000E94B72F87FF0CC0C957DF4F1882C75857
:10488000D040CA56DF4F1882C659D040412C512C17
:1048900020E030E0A901B301C056DF4F8881C05A43
:1048A000D040CC55DF4F9881C45AD0400E94B72FDA
:1048B00087FF0CC0612C712CC056DF4F1882C05A84
:1048C000D040CC55DF4F1882C45AD040C957DF4F73
:1048D0002881C758D040CA56DF4F3881C659D040CA
:1048E000A201C557DF4F6881CB58D040C457DF4F76
:1048F0007881CC58D040C257DF4F8881CE58D04005
:10490000CE56DF4F9881C259D0400E94B72F87FD05
:104910001EC0C957DF4FF881C758D040C557DF4F79
:10492000F883CB58D040CA56DF4F2881C659D040B3
:10493000C457DF4F2883CC58D040C257DF4F48823E
:10494000CE58D040CE56DF4F5882C259D040930146
:10495000C056DF4F4881C05AD040CC55DF4F5881F8
:10496000C45AD040C856DF4F6881C859D040C45699
:10497000DF4F7881CC59D040C8010E94B72F87FD06
:1049800014C0C856DF4F6882C859D040C456DF4FA4
:104990007882CC59D040C056DF4F0881C05AD040F1
:1049A000CC55DF4F1881C45AD040CD57DF4F4881D6
:1049B0005981C358D040BA01550F880B990B0E94FA
:1049C0006B3020E030E040E85CE30E94B7312B011F
:1049D0003C01C557DF4F2881CB58D040C457DF4F2B
:1049E0003881CC58D040C257DF4F4881CE58D04094
:1049F000CE56DF4F5881C259D0400E94B731C257BE
:104A0000DF4F688379838A839B83CE58D040C85612
:104A1000DF4F2881C859D040C456DF4F3881CC5968
:104A2000D040A801C301B2010E94B731CE56DF4F7A
:104A3000688379838A839B83C259D04020E030E029
:104A400040EE50E4C701B6010E94B73120E030E0EB
:104A500040E852E40E94B73120E030E040E852E400
:104A60000E944B2F0E9433302B01613871051CF0DE
:104A700020E8422E512CCD57DF4F68807980C358F3
:104A8000D040C557DF4F1882CB58D0406201052C6B
:104A9000000CEE08FF08C456DF4FC882D982EA82B4
:104AA000FB82CC59D04010E0C457DF4F7982688236
:104AB000CC58D040CD57DF4F28813981C358D040E2
:104AC000032E000C440B550BC856DF4F2883398347
:104AD0004A835B83C859D040CD57DF4F8881998185
:104AE000C358D040861997096C01990FEE08FF084A
:104AF000C056DF4FC882D982EA82FB82C05AD040BA
:104B0000C457DF4F28813981CC58D040B901330FC9
:104B1000880B990B0E946B30C257DF4F2881398177
:104B20004A815B81CE58D0400E944A2F20E030E07D
:104B3000A9010E94B23118160CF0B6C0C856DF4F5A
:104B4000688179818A819B81C859D0400E946B30ED
:104B5000CE56DF4F288139814A815B81C259D040CE
:104B60000E944A2F20E030E0A9010E94B2311816BD
:104B70000CF09AC0C457DF4F68817981CC58D0407F
:104B800066197709072E000C880B990B0E946B3071
:104B9000C257DF4F288139814A815B81CE58D0408E
:104BA0000E944A2F6B017C01C456DF4F68817981D6
:104BB0008A819B81CC59D0400E946B309B01AC0113
:104BC000C701B6010E94B72F87FF6EC0C056DF4FE6
:104BD000688179818A819B81C05AD0400E946B3064
:104BE000CE56DF4F288139814A815B81C259D0403E
:104BF0000E944A2FC957DF4F688379838A839B833A
:104C0000C758D04020E030E040E852E40E94B72F7F
:104C100087FF4AC0C557DF4F4881CB58D040612F2E
:104C2000D1018C910E94F2108C3108F07BC0E82FEA
:104C3000F0E0EE0FFF1FEE5CFE4F20813181CA567F
:104C4000DF4F39832883C659D040C957DF4F688169
:104C500079818A819B81C758D0400E943330C957DF
:104C6000DF4F688379838A839B83C758D040C7010D
:104C7000B6010E943330CB01CB55DF4FC880D980BD
:104C8000EA80FB80C55AD04000E021E0CA56DF4FE1
:104C900048815981C659D040C957DF4F6881798111
:104CA000C758D0400E947F11C457DF4FE880F98079
:104CB000CC58D040E60CF71CC457DF4FF982E8828D
:104CC000CC58D0401F5F1A3009F01ACFCD57DF4FB4
:104CD00088819981C358D040860D971DCD57DF4FED
:104CE00099838883C358D040C557DF4F1881CB586C
:104CF000D0401F5FC557DF4F1883CB58D0401A30C4
:104D000009F0D1CE20E842165104A9F020E040E499
:104D100050E070E060E0C2010E944A113FEF431A88
:104D2000530AF0CF49EA52E1CA56DF4F598348830C
:104D3000C659D0408ACFF101EA5BFF4F8081918153
:104D40008819990991838083181619060CF41DCAD5
:104D5000339786E09ACA710144E4E40EF11CD7014E
:104D60008C91863071F00E947E18F8018081D70105
:104D70008C93F101EA5BFF4F88EB9BE0918380838A
:104D800004CA0E9437110E94A514E091B702F09165
:104D9000B802EA5BFF4F2081318184E0882E912C9C
:104DA000283BBBE03B0749F0C90168EE73E00E9475
:104DB0007B324B010FEF801A900A8091B3029091E1
:104DC000B402A901481B590BCA015183408368EE04
:104DD00073E00E947B325B015FEFA51AB50ABC014C
:104DE000990F880B990B0E946B309B01AC0160E01E
:104DF00070E08AE794E40E944A2F20E030E04AE71E
:104E000054E40E94C12F6B017C0120E030E040E0BF
:104E100052E40E94B7310E9433301B0182E0B1EDB1
:104E20006B2EB1E17B2EA81659F093E00EE4602EB4
:104E300002E1702EA91204C01DE4612E11E1712E51
:104E4000A701960160E070E080E89FE30E944A2F8E
:104E50006B017C01C101809600E021E0A301B1015A
:104E60000E947F11B7FC09C0A814B90431F064E6B0
:104E700070E088EB91E00E947B0F8091B7029091E7
:104E8000B802FC01EA5BFF4F208131811216130644
:104E90000CF47BC98D5B9F4F2AE0DC012C936FEFF4
:104EA00070E088EB91E00E947B0F6FC9F101EC5B31
:104EB000FF4F9081973029F0808332968CE291E009
:104EC0005DCF0E9437110E94A5148091B702909186
:104ED000B802FC01EA5BFF4F208131814091B302AF
:104EE0005091B402241B350B318320831216130614
:104EF0000CF44BC98D5B9F4F28E0FC01208345C912
:104F00000E943711C12CD12C70E8E72E7FE3F72ED9
:104F100000E021E04FED50E170E060E090E080E0E3
:104F20000E947F1101E021E04FED50E170E060E070
:104F300080E290E00E947F11F101878981118CC08D
:104F40000E94231425E932E041E050E070E060E087
:104F50008AE490E00E94E11321E040E468E070E020
:104F600080E490E00E94A40FE091B702F091B802B3
:104F7000E081F0E0EE0FFF1FEB5DF84F6081718183
:104F800082E40E943B1425E932E041E050E06AE00F
:104F900070E08AE490E00E94E11321E040E463E1E4
:104FA00070E080E490E00E94A40F0E94691421E068
:104FB00040E46EE270E080E490E00E94A40F0E9462
:104FC000F5132DE232E041E050E069E370E090E05B
:104FD00080E00E94E1130091B7021091B802F8013D
:104FE000EA5BFF4F808191812091B3023091B4023E
:104FF000821B930B91838083181619060CF4C5C885
:105000000E949B0F85FF04C081E0D80157968C93C6
:105010000E949B0F86FF02C0F801178A0E94791137
:10502000882381F0D8018C9190913B07891750F427
:105030008F5F8B3008F062C08C9384E0F801ED5BE9
:10504000FF4F80830E947311882309F49EC8F801E2
:10505000ED5BFF4F84E019C9813009F0BCCF0E949D
:10506000231425E932E041E050E070E060E08AE49A
:1050700090E00E94E11321E040E468E070E080E409
:1050800090E00E94A40F59E0E52EF12C10E000E022
:10509000E091B702F091B802C8010296880F991FFB
:1050A000E80FF91F6081718181E3800F0E943B143A
:1050B00025E932E041E050E0B7018AE490E00E9447
:1050C000E1130F5F1F4FF8E0EF0EF11C05301105E3
:1050D000F9F60E94F51327E332E041E050E069E37E
:1050E00070E090E080E00E94E11321E040E46FE294
:1050F00070E080E490E00E94A40F6DCF8AE0F80198
:1051000080839BCF7101F4E4EF0EF11CD7018C91E9
:105110008A3049F00E947E1881E0F101838BD8012A
:105120008C91F70180830E943711D10154968C91A4
:10513000882339F00E949B0F84FF03C084E0F801AC
:1051400080830E947911882341F0D10154968C917B
:105150005497882311F054961C920E949B0F87FF4E
:10516000E1C081E0F101848BD10154961C915497E8
:10517000111182C3D2968D909D90AD90BC90D59721
:1051800020E030E040E857E492966D917D918D915A
:105190009C9195970E94B7310E9433300E946B30EA
:1051A00020E030E040E857E30E94B7312B013C019A
:1051B0000E9424326B017C01C501B4010E946B3056
:1051C000A70196010E94B7310E943330F101C28CD1
:1051D000D38CE48CF58CC60ED71EE81EF91EC28E49
:1051E000D38EE48EF58EC301B2010E94BC2F2B0139
:1051F0003C0166277727CB01681979098A099B0941
:105200000E946B30A30192010E94B7310E9433309B
:10521000F101468C578C60A071A0460E571E681E87
:10522000791E468E578E60A271A26701FF24D7FCBB
:10523000F094EF2C2301772457FC7094672C920193
:10524000B1E8CB16B2E0DB060CF444C180E090E09C
:10525000A0E8B2E0828F938FA48FB58F81E02138D0
:10526000B2E03B070CF43FC120E030E040E852E000
:10527000D1015E962D933D934D935C9391971814B5
:1052800019041A041B041CF56091B9027091BA024A
:105290008091BB029091BC020E9469302AE037EDF8
:1052A00043E25CE30E94B73120E030E040E857E49D
:1052B0000E94B7310E943330861A970AA80AB90AA9
:1052C000D101D2968D929D92AD92BC92D597F1016B
:1052D00082A893A8A4A8B5A8B7FE0FC16091B9028F
:1052E0007091BA028091BB029091BC020E94693019
:1052F0002AE037ED43E25CE30E94B73120E030E082
:1053000040E857E40E94B7310E943330860E971E62
:10531000A81EB91ED101D2968D929D92AD92BC92DB
:10532000D597EBC00E949B0F85FF1AC0C501B40141
:105330000E94693026EA3BE944E45BE30E94B7310E
:105340009B01AC01D10192966D917D918D919C91C3
:1053500095970E944A2FF10162A373A384A395A39A
:105360000E949B0F86FF1AC0C501B4010E946930DC
:1053700026EA3BE944E45BE30E94B7319B01AC01C0
:10538000D10192966D917D918D919C9195970E94FE
:105390004B2FF10162A373A384A395A320E030E017
:1053A000A901D10192966D917D918D919C919597D6
:1053B0000E94B72F87FF09C08BED9FE0A9ECB0E4F6
:1053C000F10182A393A3A4A3B5A32BED3FE049EC85
:1053D00050E4D10192966D917D918D919C9195971C
:1053E0000E94B23118162CF4F10112A213A214A2D9
:1053F00015A2D10153968C9153978823B9F05496F6
:105400008C915497811112C05796EC91F0E0EE0FF9
:10541000FF1FE20DF31D84819581880D991D813652
:10542000BAEE9B0708F053C0958384830E947911DC
:10543000882309F1C501B4010E9469302AE037EDE3
:1054400043E25CE30E94B73120E030E040E857E4FB
:105450000E94B7310E943330F10102A913A924A997
:1054600035A9DC01CB01800F911FA21FB31F82ABB6
:1054700093ABA4ABB5AB0E947311882309F474CE2F
:10548000C501B4010E9469302FE632E143E85BE3D5
:105490000E94B73120E030E040E857E40E94B73185
:1054A0000E943330D101D2960D911D912D913C91E6
:1054B000D59768017901C61AD70AE80AF90AD7010F
:1054C000C601F10182AB93ABA4ABB5AB4DCE80E688
:1054D0009AEEAACFD7FE05C0128E138E148E158EAB
:1054E000BDCE80E0BCCE37FF06C0F101168E178E10
:1054F00010A211A2C4CE8111C2CEF10182A993A93A
:10550000A4A9B5A920E030E045E050E08130910544
:10551000F5E0AF07B10544F40097AE4FBF4F5CF420
:1055200020E030E04EEF5FEFD101D2962D933D9316
:105530004D935C93D597F10182A893A8A4A8B5A830
:10554000181419041A041B040CF0B1C06091B902BC
:105550007091BA028091BB029091BC020E946930A6
:105560002EE632E143E05BE30E94B73120E030E019
:1055700040E857E40E94B7310E943330861A970AF8
:10558000A80AB90AB7FCBBC0D101D2968D929D92F0
:10559000AD92BC92D597D101DA968C91DA97882397
:1055A00081F1D2968D909D90AD90BC90D597B1E051
:1055B0008B16B0E89B06B1E0AB06B1040CF4A5C0B5
:1055C0006091B9027091BA028091BB029091BC02C5
:1055D0000E9469302FE832EC45E75CE30E94B73166
:1055E00020E030E040E857E40E94B7310E943330B9
:1055F000861A970AA80AB90AF10182AA93AAA4AA4C
:10560000B5AAB5E0CB0ED11CD7FE03C0EFE3CE0E9A
:10561000D11C06E0D594C7940A95E1F7F5E04F0E4A
:10562000511C57FE03C00FE3400E511CB6E05594C9
:105630004794BA95E1F7442D6C2DD1018C910E94CD
:10564000F210082FF10122812C151D0429F4838109
:105650008415150409F409C1D10111968C91119793
:1056600096EE980F923008F07DC05196ED91FC9126
:1056700031E0309709F476C0111174C0908129137C
:1056800012C04181D10113969C91139749130BC00D
:105690001281111108C0328359969C9159979F5FCE
:1056A00059969C9311E00380F481E02DE2CF8114A0
:1056B0009104A104B10409F46ECF6091B902709114
:1056C000BA028091BB029091BC020E9469302EE622
:1056D00032E143E05BE30E94B73120E030E040E894
:1056E00057E40E94B7310E943330860E971EA81EE1
:1056F000B91E181419041A041B040CF045CFF1014B
:1057000012AA13AA14AA15AA46CF8114F0E89F067C
:10571000FEEFAF06FFEFBF060CF073CF6091B9024A
:105720007091BA028091BB029091BC020E946930D4
:105730002FE832EC45E75CE30E94B73120E030E02F
:1057400040E857E40E94B7310E943330860E971E1E
:10575000A81EB91ED101D2968D929D92AD92BC9297
:10576000D5974FCF8851823008F07FC0F1018389EF
:10577000882309F478C0908D818D981376C0E789CD
:10578000F0E03296EE0FFF1FE20DF31D8081918154
:10579000D1011E962D913C918217930718F0232B6F
:1057A00009F04FC0F1019787868721E0208B208187
:1057B000622F70E0AB0141505109660F771FFB016A
:1057C000EB5DF84F608171816115710519F08617E5
:1057D0009707B8F5FA01EE0FFF1FE95DF84F9183C7
:1057E00080833CE0349FF001359FF00D1124E55992
:1057F000FF4E45915591659174918417950750F42A
:1058000080913B07281730F02A3020F481E0820F86
:1058100080933B0780913B07821710F420933B074E
:105820008AE1E3E2F7E0DE015B9601900D928A9552
:10583000E1F74AE150E06CE273E0CE014B960E9442
:10584000B72EE091B702F091B80287898F5F878BFE
:10585000118E0188F289E02D309739F01282038091
:10586000F481E02DF9CF81E0838BE091B702F091D4
:10587000B8020183C28243820E94A514E091B7025C
:10588000F091B8028789853011F00C94C520ED5B4A
:10589000FF4F87E00C9445210E94371121E040E83A
:1058A0006DE070E090E080E00E94A40F21E040E80D
:1058B0006AE170E090E080E00E94A40F21E040E8FF
:1058C00067E270E090E080E00E94A40F21E040E8F1
:1058D00064E370E090E080E00E94A40F20E432E0F6
:1058E00041E050E061E170E083E090E00E94E1136C
:1058F00022E432E041E050E06FE170E081E090E0CE
:105900000E94E11324E432E041E050E06BE270E0F9
:1059100083E090E00E94E11327E2622E27E0722EDE
:1059200037E6C32E30E1D32E40E1E42EF12C10E017
:1059300000E058EBA52E51E0B52E65E9862E62E019
:10594000962E0F5F1F4F1F930F93BF92AF929F92A0
:105950008F920E94BA3325E932E041E050E063E0E3
:1059600070E0C7010E94E11321E040E450E070E0E4
:1059700060E0C70101970E944A11D3014D915D91EA
:105980003D010F900F900F900F900F900F904115C9
:105990005105E1F0960190E080E0F9012590359005
:1059A0004590549001964215530548F5BDE0B89FC7
:1059B000B001B99F700D11246C5F7F4F26E432E077
:1059C00041E050E0C70101960E94E113BBE0EB0EFD
:1059D000F11CECE0CE0ED11C0A30110509F0B1CF5C
:1059E0000E949B0F86FD02C00C94C520E091B70277
:1059F000F091B802ED5BFF4F10820C94C5202C5F34
:105A00003F4F8330910549F6E1CF0E943711D10114
:105A100057968C915797813009F4A1C008F44CC077
:105A2000823011F00C94C52056961C925697F801BE
:105A3000108257961C92EFE4F0E0EC0FFD1F3496B5
:105A400011921192C755DF4FC880D980C95AD040F2
:105A5000CE16DF06A9F78DE095E061969FAF8EAF79
:105A6000619782E090E063969FAF8EAF639781E08D
:105A7000A8968FAFA897A9961FAEA9978AE1FE01B5
:105A8000E15BFF4FDE01119601900D928A95E1F7DF
:105A90004AE150E06CE273E0CE0101960E94B72E1D
:105AA0008AE1FE01E15BFF4FA3E2B7E001900D92B6
:105AB0008A95E1F70C94C52028E432E043E050E0F9
:105AC00070E060E090E080E00E94E11323E532E0C6
:105AD00043E050E06EE170E090E080E00E94E1136E
